:020000040800F2
:1000000000200020DD010008E3010008E7010008EE
:1000100000000000000000000000000000000000E0
:1000200000000000000000000000000003020008C3
:100030000000000000000000070200080B0200089A
:100040001102000811020008110200081102000844
:100050001102000811020008110200081102000834
:100060001102000811020008110200081102000824
:100070001102000811020008110200081102000814
:10008000110200081102000800000000110200081F
:1000900011020008110200081102000811020008F4
:1000A00011020008110200081102000811020008E4
:1000B000110200080000000011020008000000000A
:1000C0005FF808F130B583B000F0C2F8314B324A26
:1000D0001360324A1360324B324A33498B4204D2A6
:1000E0001168196004330432F7E72B4B1A682F4B61
:1000F0009A4200D0FEE7294B1A682D4B9A42F9D15B
:10010000244B2C4A13602C4A13602C4B02E0002233
:100110001A6004332A4A9342F9D3264B1B68002BFA
:1001200003D1254B1B68002B00D0FEE700F094F8AC
:10013000694601A800F084F8224C234BE41AA4106D
:100140000025AC4214DC214C214BE41AA4100025FC
:10015000AC4213DC0099019800F0F4F905001D4C45
:100160001D4BE41AA410002C0EDC280000F066F8E9
:10017000AA00154BD35898470135E2E7AA00144B63
:10018000D35898470135E3E7013CA200124BD358FE
:100190009847E8E7BABADECA000000202400002031
:1001A00000000020381B0008280000207856341278
:1001B00032547698280000203000002028000020CB
:1001C000340000203C0200083C0200083C02000809
:1001D0003C0200083C0200083C02000810B5FFF792
:1001E00071FF00BEFEE704207146084202D0EFF323
:1001F000098001E0EFF308807146044A104700BE11
:10020000FEE700BEFEE700BEFEE77047FF01000804
:0402100000BEFEE747
:10021400381B00080000002028000020381B0008BC
:10022400000000000000000028000020340000202E
:080234000000000000000000C2
:10023C00FEE7000001230360014B0B607047C046D2
:10024C000400002010B500F05FF810BD10B500F0F0
:10025C008DF810BD82B0002301930093274A1168DA
:10026C0080235B020B431360244B1B688022920299
:10027C0013400093019B01330193009B002B04D18D
:10028C00019AA023DB019A42EED11C4B1B689B0305
:10029C0006D501230093009B012B04D002B07047BC
:1002AC0000230093F7E7164B11221A60134B5A6880
:1002BC005A605A685A605A6812490A405A6059681A
:1002CC00882252030A435A601968802252040A4356
:1002DC001A600A4B1B689B01FBD5084B5A6803211B
:1002EC008A435A605A6801390A435A60034B5A6868
:1002FC000C231340082BF9D1D0E7C0460010024064
:10030C0000200240FF7FC0FF10B5124B1A6801217C
:10031C000A431A605A68104802405A601A680F481B
:10032C0002401A601A680E4802401A605A680D485A
:10033C0002405A60DA6A0F208243DA621A6B0A486A
:10034C0002401A635A6B8A435A6300229A60FFF781
:10035C0081FF10BD001002400CB8FFF8FFFFF6FE45
:10036C00FFFFFBFFFFFFC0FFACFEFFFF10B5214BF3
:10037C005A680C231340042B17D0082B19D0002BD0
:10038C0003D01D4B1D4A1A6002E01B4B1B4A1A601E
:10039C00184B5A6812090F231340194AD35CDBB26D
:1003AC00154A1168D940116010BD134B134A1A60DD
:1003BC00EEE7104B58685A68C0235B02800C0F2480
:1003CC00044002341A4209D163011B1B9801C01A64
:1003DC00C00004192302084A1360D9E7054BDB6AF5
:1003EC000F2119400131054800F0CCF84443024B71
:1003FC001C60CDE7001002401C00002000127A00A7
:10040C000C00002012494A6980239B0213434B6164
:10041C009023DB051A68920A92021A60D8680D4A7A
:10042C000243DA6048698022D20202434A610A4AD6
:10043C0011680520014311609069C02189020143B4
:10044C0091611968C02212010A431A607047C046B4
:10045C0000100240A902000000040048154B596925
:10046C008022D2020A435A61DA6901210A43DA6115
:10047C00114B1968802292030A431A60596A802230
:10048C0092000A435A628023DB050C4ADA6214227A
:10049C001A859A8B60210A439A83E6221201DA6349
:1004AC001A8C802149000A431A841A8801210A43B4
:1004BC001A80704700100240000400488FC90000E9
:1004CC0070B582B001F09AFA174A184B00F0EEFFA3
:1004DC000022174B00F0CCF904000D000022154B44
:1004EC0000F0C6F90090019101F052FA43001B187C
:1004FC001801142100F0D0F8461E009A019B200030
:10050C00290000F0D1FC04000D00300001F076FA57
:10051C0022002B0000F0CAFF01F03AFA8023DB0521
:10052C00DE62D86302B070BDF5499FF4499F244048
:10053C00000081400088D34010B5FFF763FF902383
:10054C00DB051B8ADB07FAD40A4B01221A70FFF772
:10055C0085FF094B1868FFF7B3FF9023DB051B8A57
:10056C009B07FAD58023DB05044ADA62044ADA6376
:10057C00F3E7C0462D0000202000002043CA0000F5
:10058C0027060000002243088B4274D303098B42D8
:10059C005FD3030A8B4244D3030B8B4228D3030C47
:1005AC008B420DD3FF22090212BA030C8B4202D3E9
:1005BC001212090265D0030B8B4219D300E0090A11
:1005CC00C30B8B4201D3CB03C01A5241830B8B421A
:1005DC0001D38B03C01A5241430B8B4201D34B0303
:1005EC00C01A5241030B8B4201D30B03C01A524168
:1005FC00C30A8B4201D3CB02C01A5241830A8B42ED
:10060C0001D38B02C01A5241430A8B4201D34B02D5
:10061C00C01A5241030A8B4201D30B02C01A524139
:10062C00CDD2C3098B4201D3CB01C01A52418309ED
:10063C008B4201D38B01C01A524143098B4201D327
:10064C004B01C01A524103098B4201D30B01C01A52
:10065C005241C3088B4201D3CB00C01A52418308CC
:10066C008B4201D38B00C01A524143088B4201D3F9
:10067C004B00C01A5241411A00D201465241104659
:10068C007047FFE701B5002000F0F0F802BDC0464E
:10069C000029F7D076E7704703460B437FD400223E
:1006AC0043088B4274D303098B425FD3030A8B42FA
:1006BC0044D3030B8B4228D3030C8B420DD3FF2264
:1006CC00090212BA030C8B4202D31212090265D032
:1006DC00030B8B4219D300E0090AC30B8B4201D3E5
:1006EC00CB03C01A5241830B8B4201D38B03C01A2C
:1006FC005241430B8B4201D34B03C01A5241030BA3
:10070C008B4201D30B03C01A5241C30A8B4201D353
:10071C00CB02C01A5241830A8B4201D38B02C01AFE
:10072C005241430A8B4201D34B02C01A5241030A75
:10073C008B4201D30B02C01A5241CDD2C3098B425A
:10074C0001D3CB01C01A524183098B4201D38B01D7
:10075C00C01A524143098B4201D34B01C01A52417A
:10076C0003098B4201D30B01C01A5241C3088B42BF
:10077C0001D3CB00C01A524183088B4201D38B00AA
:10078C00C01A524143088B4201D34B00C01A52414C
:10079C00411A00D201465241104670475DE0CA0F23
:1007AC0000D04942031000D34042534000229C46E3
:1007BC0003098B422DD3030A8B4212D3FC228901ED
:1007CC0012BA030A8B420CD3890192118B4208D3C3
:1007DC00890192118B4204D389013AD0921100E025
:1007EC008909C3098B4201D3CB01C01A5241830939
:1007FC008B4201D38B01C01A524143098B4201D366
:10080C004B01C01A524103098B4201D30B01C01A90
:10081C005241C3088B4201D3CB00C01A524183080A
:10082C008B4201D38B00C01A5241D9D243088B4260
:10083C0001D34B00C01A5241411A00D20146634603
:10084C0052415B10104601D34042002B00D5494267
:10085C00704763465B1000D3404201B5002000F0A6
:10086C0005F802BD0029F8D016E770477047C0465E
:10087C00F0B54F464646D6460C000903C0B5490AAA
:10088C00470F5E0039431F03DB0F9C4665007B0A54
:10089C00570F1F436D0DE40F760DA146C000B846EF
:1008AC00D200AB1B64457BD0002B5FDD002E00D04B
:1008BC00A4E03E00164300D112E15E1E002E00D0D3
:1008CC009EE1871A4346B84280410125C91A40422D
:1008DC00091A0B0200D431E149024E0A002E00D154
:1008EC006EE1300001F0C4F80300083B1F2B00DD63
:1008FC0061E120223900D21A9E40D1409F400E4324
:10090C009D4200DD51E15D1B6B1C1F2B00DD7CE16A
:10091C002021C91A3D0030008F408840DD40791EEF
:10092C008F41310007222843D940002507433A4024
:10093C00002A09D00F233B40042B05D03B1DBB42A2
:10094C00BF417F42C9191F000B0200D426E26A1C6A
:10095C00C64B55056D0D9A4200D106E1C44AFF08FD
:10096C000A40530752023B43120B8EE0002B00D07F
:10097C00B8E06B1C5B055B0D012B00DC30E1871ACA
:10098C004346B842B641CB1A76429E1B330200D581
:10099C004CE13B003343A1D100220024002570E040
:1009AC00002B00DCE5E0002E00D183E0AF4EB54219
:1009BC0060D0802636043743B846382B00DC3EE145
:1009CC00434613431F007A1E97413F1887428041CC
:1009DC00404209180B0200D4B0E0A44B01359D42F3
:1009EC0000D1C3E0A24A7B080A4001210F401F43FB
:1009FC005108D30707221F433A4099E79B4EB54253
:100A0C0038D0802636043743B846382B00DDDCE07E
:100A1C001F2B00DC30E11E004746203EF740BC4651
:100A2C00202B04D04026F31A46469E403243170032
:100A3C0063467A1E97411F43CCE0002B00D104E2A1
:100A4C004346134300D159E14B07C0081843802398
:100A5C00C9081B03194208D04546ED081D4204D1B4
:100A6C004346D008590708432900420FC9007F4D5F
:100A7C001143C0004B07CA087C49C00803438D4290
:100A8C0068D012036D05120B6D0D002112031800B6
:100A9C00130B0A0D12051A43764B2D0513402B43ED
:100AAC005B00E4075B08234319001CBC9046994685
:100ABC00A246F0BD3E00164312D05E1E002E00D0A2
:100ACC0000E18718874280414144404209180125C2
:100ADC000B0233D5022585E76446330041461000EE
:100AEC001D00C7E7002D00D0DAE00C000443F3D062
:100AFC005C1C00D19FE15D4CA64200D12FE1DB4391
:100B0C00382B00DD66E11F2B00DD83E1202405007E
:100B1C00E41A0F00DD40D940A0404346A7405B1AC1
:100B2C00441EA04198462F433843171ABA429241AB
:100B3C0043465242991A64463500CAE607223A40A7
:100B4C00002A00D0F6E64B07CA084849FF083B4389
:100B5C008D4296D11900114300D19EE180210903E9
:100B6C000A431203120B414D8FE71500002200239C
:100B7C008BE7002B00D0C7E06B1C5F057F0D012FAE
:100B8C0000DCF1E0394DAB4200D1B9E085180A0028
:100B9C00854289414244494251180722CF076D08CA
:100BAC002F4349083A401D00C2E607223049ED1A8E
:100BBC0031403A40BCE63E002838864000279FE68C
:100BCC00380000F055FF20308EE6434613431F00DB
:100BDC007A1E9741C71BB84280414042091A78E6F9
:100BEC000E003B0006431343002D61D1002E00D0B4
:100BFC00F4E0002B00D11BE164463900100039E70A
:100C0C001A4FBB427AD03300FFE630001F3DE8405C
:100C1C00202B03D04021CB1A9E4037437B1E9F4193
:100C2C00072207433A400021002589E7171A43465B
:100C3C00BA42B641591A76428E1B64464EE61F2BB9
:100C4C0000DDADE020264746F61AB740B94617003E
:100C5C00B246DF404E463E4337005646B240561E23
:100C6C00B24117434246DA408918AEE6FF0700004E
:100C7C00FFFF7FFFFFFF0F8020264746F61AB74085
:100C8C00B9461700B246DF404E463E433700564643
:100C9C00B240561EB24117434246DA40891A99E7D0
:100CAC007F4CA6425BD0802424045B42214327E77F
:100CBC00002E0CD1002B00D1CBE064463900100083
:100CCC00774DD7E6764FBB4218D0330075E6002B34
:100CDC0014D04B07C00818438023C9081B031942C2
:100CEC0007D0FC081C4204D17907D0080843E14620
:100CFC0021004C46420FC9001143C000684DB9E6B3
:100D0C001D0000220023C0E6002D5BD10D00054321
:100D1C0000D1E2E65D1C00D1B0E0614DAE421FD0C7
:100D2C00DB43382B71DC1F2B00DD96E020250F00F8
:100D3C00ED1AAF40B9460700AA46DF404D463D4389
:100D4C002F005546A840D940451EA841884407436A
:100D5C00BF18974292415142414435003AE66446ED
:100D6C0035004146100085E60B000343002D00D0F2
:100D7C0063E6002BF5D04346134300D17AE687187F
:100D8C008742804107224144404209183A400B02F5
:100D9C0000D4D5E6434B01351940C9E5380069E666
:100DAC001E004746203EF740BC46202B04D0402670
:100DBC00F31A46469E403243170063467A1E97410B
:100DCC001F4302E6364DAE42CAD080252D045B424D
:100DDC002943A6E70843411E8841A6E6002B00D113
:100DEC0048E6871A4346B842B641CB1A76429E1B58
:100DFC0033024BD5171A4346BA429241591A524202
:100E0C00891A072264463A4092E501430F00791E85
:100E1C008F419DE71C000F00203CE740202B03D0A6
:100E2C004024E31A99400843411E884138437CE62C
:100E3C000022002425E6171A4346BA429241591A59
:100E4C005242891A6446350043E541461000144D60
:100E5C0010E680220024120380E61D000F00203DC6
:100E6C00EF40BC46202B03D04025EB1A9940084399
:100E7C0007006346781E87411F4369E7871897422E
:100E8C009B4141445B42C9183500A3E53B00334309
:100E9C00CED0072231003A4052E600231A00F4E586
:100EAC00FF070000FFFF7FFFF0B55746DE464E46BA
:100EBC004546E0B5834607000E03480085B09246D0
:100ECC001C00360B400DCD0F002800D19DE0954B3A
:100EDC00984239D08023F6001B041E43924A7B0FA4
:100EEC003343994694460300634400930023002641
:100EFC00FF00029323031B0B98466300E40F52463A
:100F0C005B0D019400D1B3E086498B4200D19EE089
:100F1C004246D100802212040A435146490F114324
:100F2C008B46814952468C4600996344CB1A00216A
:100F3C00D20000932B0063409A460F2E00D905E196
:100F4C007A4BB6009B599F465B463343994600D07B
:100F5C00B8E002230826002700900293CAE7CB468C
:100F6C003A0002990195019B9A46022927D0032940
:100F7C0000D180E2012944D06D49009B8C4663442A
:100F8C001C00002C38DD530700D013E2D2085B465E
:100F9C00DB0109D55946674B19408B468021C900A6
:100FAC008C46009B63441C00634B9C4207DC5B46F5
:100FBC0064055F075B0217431B0B620D02E0002305
:100FCC000027584A00211B031C0B0B0D1B05234348
:100FDC0014055A4A380013401C4353466400DB077F
:100FEC0064081C43210005B03CBC90469946A246BF
:100FFC00AB46F0BD0122524201231B1B382B00DCF7
:10100C00ADE1002200230027DCE75B463343994621
:10101C005ED0002E00D18AE1300000F029FD0300E3
:10102C000B3B1C2B00DD7BE11D22D31A5A46010021
:10103C00DA4008398E4013005F46334399468F409F
:10104C003F4B00261B1A00930023029352E74146A4
:10105C0053460B433B499B468C46009B6344009391
:10106C005B46002B3BD1022300221E43022161E789
:10107C00434613439B4637D04346002B00D162E1D5
:10108C00404600F0F5FC03000B3B1C2B00DD53E14C
:10109C0002004146083A914088461D21CB1A514620
:1010AC00D9400B0041460B439B46534693401A00D4
:1010BC00009B25499C46604403008C466344009386
:1010CC00002137E70323B14600900C26029311E769
:1010DC000023009301330426002702930AE703231D
:1010EC00C3461E43032125E701331E430022012181
:1010FC0020E700239A46802300271B03094A61E757
:10110C00802349461B03194200D1E2E0594619429B
:10111C0000D0DEE00B431B0317001B0BA246014A59
:10112C0050E7C046FF07000001FCFFFFB81A00089B
:10113C00FF030000FFFFFFFEFE070000FFFF0F8014
:10114C000DFCFFFF01F8FFFFF3030000D94500D9A8
:10115C00CBE000D1C6E03C0048460027009B013B99
:10116C0000935B46160E1B021E4313029846330473
:10117C001B0C9946310C0191FFF78AFA4A464243FF
:10118C000B04210C050019438A4207D98919013D2A
:10119C008E4203D88A4201D9851E8919881A019971
:1011AC00FFF776FA09048C464A462104644642430A
:1011BC00090C030021438A4204D98919013B8E4250
:1011CC0000D8F1E02D041D43AB464346891A424634
:1011DC00280C12041D0C5B46140C22001B041B0C67
:1011EC005A4303946B434443029568431B19150CF3
:1011FC00EB189C4203D980246402A44660441C0C66
:10120C0015041B042D0C20185D19814277D373D063
:10121C000C1AA24A7D1BAF42BF419446009B7F42F1
:10122C006344E01B1C00864200D1DBE00199FFF710
:10123C002FFA4A4642430B04290C070019438A42F1
:10124C0007D98919013F8E4203D88A4201D9871EDA
:10125C008919881A0199FFF71BFA09044A4689462D
:10126C0029044D464243090C030029438A4207D9FD
:10127C008919013B8E4203D88A4201D9831E8919F0
:10128C003F04891A3A00039F1A43380013041B0CBD
:10129C00584381460298150C6F43434345434846D7
:1012AC00000C8446DB1963449F4203D98020400222
:1012BC008446654448461F0C00041B04000C7D1931
:1012CC001818A94200D284E000D17FE001231A4310
:1012DC0057E680234A461B0313431B031B0BAA46EA
:1012EC006F4A6FE6BA4200D935E74B46DC0758081F
:1012FC007B081C43FF0734E70024AF4289D24744E4
:10130C004745A4415B466442A4196418013BA642BC
:10131C001ED2A0426DD800D1B6E0241A9B4678E7C5
:10132C0003005A46283B9A400027914688E65846C7
:10133C0000F09EFB203072E603005246283B9A4098
:10134C0093460022B4E6504600F092FB20309AE619
:10135C00A642E2D1B845DCD9341A9B4659E71F2B7B
:10136C0065DC504C0099A4465C46614408008C40F6
:10137C0011008240D940501E82410C4314435A46FE
:10138C00DA401300620709D00F222240042A05D04C
:10139C002200141D9442894149425B181A0262D5FD
:1013AC000122002300270DE68A4200D80AE7831E9B
:1013BC00891907E70F231340042B00D1E6E5171D0D
:1013CC009742924153429B44FA08E0E5002800D131
:1013DC00D7E57118531EB14227D3A94215D358D063
:1013EC001A0073E7002B00DC04E6012300229B4467
:1013FC00CDE502234744474589415B429C4649421F
:10140C0089190C19E344241A03E743465F00474546
:10141C009B41B8465B429E19023A8919A94200D0F9
:10142C0054E7404500D051E7ABE51A00F6E71F2121
:10143C005F4649420C1BE740202B07D01A49009B02
:10144C008C46634418005B4683401A43501E82410D
:10145C003A4307270023174009D00F2100231140DE
:10146C001400042995D122005F075B021B0BD208E4
:10147C0017430022A6E5802359461B030B431B038D
:10148C0017001B0B064A9DE5BD42B2D89B460024B3
:10149C00BFE68045B9D31A00C3E7C046FF0300007E
:1014AC00FF0700001E0400003E040000F0B5574684
:1014BC00DE464E464546E0B5834606000F0348001F
:1014CC0087B092461D003F0B400DCC0F002800D179
:1014DC006FE0DE4B984238D08023FF001B041F4383
:1014EC00730F3B430193DA4B0027994600239B462D
:1014FC00F60081442B0369001B0B52469846490D9C
:10150C00ED0F002900D185E0D04B994200D173E05A
:10151C004346DA0080231B0413435246CC48520F37
:10152C0084461343524600206144D2008944210072
:10153C00694000918C46012149448A460F2F00D9FD
:10154C0090E0C449BF00CF59BF465B463B43019373
:10155C0000D06AE102230827002681469B46C9E792
:10156C0032005846019B61460091022800D175E07B
:10157C00032800D1FEE1012800D02CE10023002734
:10158C00002600253F032A0D3F0BB34812053A43B2
:10159C0002401B051343009A5B00D1075B080B4309
:1015AC003000190007B03CBC90469946A246AB46A9
:1015BC00F0BD5B463B43019300D12FE1002F00D1DE
:1015CC00A5E1380000F054FA03000B3B1C2B00DDA6
:1015DC0096E11D22D31A5A460100DA405E460839BC
:1015EC008F4013008E403B4301939C4B00271B1AEA
:1015FC00994600239B467DE7414653460B4393494E
:10160C008C46E144002B00D01AE102220220174341
:10161C0000228CE7134300D10DE14346002B00D18F
:10162C0081E1404600F024FA02000B3A1C2A00DD4E
:10163C0072E10100434608398B4098461D239A1AE3
:10164C005346D3401A004346134352468A404946F8
:10165C00081A824989468144002068E77B4B0027A1
:10166C0000268EE7140C1204120C1100370C3604F1
:10167C00350C794328008C462E0060436044834629
:10168C0056432100300C8046584679434044029121
:10169C00844506D98846802149028C46E04441465F
:1016AC0002913604010C360C00048B4681191E0C79
:1016BC001B041B0C0391190079438C4628007543BD
:1016CC006544A8465843050C45447743A94203D9C1
:1016DC00802149028C466744290C8C463900000451
:1016EC00000C2D042D186144AB440591594604910E
:1016FC0001990F043F0C080C3900514342439046AA
:10170C0002008C46090C8B4662437C4344445C4487
:10171C00A04503D98021490288464244210C8846C1
:10172C0061460904090C8C46390059434343704304
:10173C007E430F0CF6182404BE19644442448C46B4
:10174C00B34203D980235B0298464044029B614616
:10175C009846049B370443449B46AB45AD416B42D2
:10176C000D0405992D0C8C467F196744FD18A8466D
:10177C005D462D19A542A44193466442A446C34438
:10178C00DC448F42BF4198459B4193459241A4450F
:10179C00A4415B427F421F43360C52426442BF1944
:1017AC002243BF18624638184302D20D03991343E3
:1017BC006A020A43501E82416146ED0D2A434E02D5
:1017CC003243D90100D4B3E0012650083240024321
:1017DC00DE0732435B08224C5444002C62DD510777
:1017EC0009D00F201040042805D0101D90429241C2
:1017FC0052429B180200D90104D580241948E400F8
:10180C00034054441848844200DD27E75E075B021E
:10181C00D2081F0B630516435B0DB2E600239946F5
:10182C000133042700269B4664E603230197814677
:10183C000C279B465EE6012201201743002276E628
:10184C00032303201F43434671E6C046FF070000F5
:10185C0001FCFFFFF81A0008FFFF0F800DFCFFFFD3
:10186C00FF030000FFFFFFFEFE07000000238027A0
:10187C0000933F030026434B83E6019B3200A446B2
:10188C00584670E6AC466EE6802701993F03394214
:10189C002DD03B422BD11F433F033F0B009516002D
:1018AC00384B6EE601252D1B382D00DD66E61F2D0D
:1018BC0040DC35481C005044160082408440EE4009
:1018CC00501E824134431443EB40620709D00F226F
:1018DC002240042A05D02200141D9442804140422B
:1018EC001B181A023ED501230027002649E6802743
:1018FC00019B3F031F433F033F0B0094214B40E6EA
:10190C0003005A46283B9A40002601926DE6584641
:10191C0000F0AEF8203057E603005246283B9A40C0
:10192C001300002293E6504600F0A2F820307BE62C
:10193C00CA4650E71F201E004042041BE640202DE3
:10194C0003D0124C5444A3401A43501E82413243DC
:10195C0007260027164009D00F2000231040140042
:10196C000428B9D122005E075B021F0BD208164374
:10197C00002306E680273F031F433F033F0B16005F
:10198C00004BFEE5FF0700001E0400003E040000B3
:10199C0030B5144D0A034B00120B5B0DC90F00241C
:1019AC00AB4211DD104CA34210DC802464032243B3
:1019BC000E4CE41A1F2C0CDD0D48C31ADA40130030
:1019CC005C42002900D11C00200030BD094BCC1812
:1019DC00FAE7094DE040AC4663449A4013000343D8
:1019EC00EEE7C046FE0300001D04000033040000B7
:1019FC0013040000FFFFFF7FEDFBFFFF70B5002815
:101A0C002DD0C317C5185D40C40F280000F030F866
:101A1C00154B1B1A5B055B0D0A2815DD0B38854031
:101A2C0000222D032D0B002110002D030A0D2D0B70
:101A3C0012052A430D4D1B052A4013435B00E40796
:101A4C005B082343190070BD020029001532914038
:101A5C000A000B21081AC5402D032D0BE3E70024C7
:101A6C00002300250022DEE71E040000FFFF0F808C
:101A7C001C2101231B04984201D3000C10391B0AB2
:101A8C00984201D3000A08391B09984201D3000976
:101A9C00043902A2105C40187047C04604030202CD
:101AAC0001010101000000000000000058110008B5
:101ABC00CA0F00080E100008720F00080E10000864
:101ACC00FE1000080E100008720F0008CA0F000864
:101ADC00CA0F0008FE100008720F00086A0F0008F9
:101AEC006A0F00086A0F00080C1100087016000835
:101AFC007215000872150008901800086C15000883
:101B0C006C15000878180008901800086C1500086F
:101B1C00781800086C150008901800088618000842
:0C1B2C00861800088618000894180008AD
:101B3800785634122C00002000000000000000003D
:101B4800000000000102030406070809006CDC021B
:081B58005A0000003254769897
:04000005080000C52A
:00000001FF
